{
  "_format": "hh-sol-artifact-1",
  "contractName": "FreeMintNFT",
  "sourceName": "contracts/FreeMintNFT.sol",
  "abi": [
    {
      "inputs": [],
      "stateMutability": "nonpayable",
      "type": "constructor"
    },
    {
      "inputs": [
        {
          "internalType": "address",
          "name": "target",
          "type": "address"
        }
      ],
      "name": "AddressEmptyCode",
      "type": "error"
    },
    {
      "inputs": [
        {
          "internalType": "address",
          "name": "implementation",
          "type": "address"
        }
      ],
      "name": "ERC1967InvalidImplementation",
      "type": "error"
    },
    {
      "inputs": [],
      "name": "ERC1967NonPayable",
      "type": "error"
    },
    {
      "inputs": [],
      "name": "ERC721EnumerableForbiddenBatchMint",
      "type": "error"
    },
    {
      "inputs": [
        {
          "internalType": "address",
          "name": "sender",
          "type": "address"
        },
        {
          "internalType": "uint256",
          "name": "tokenId",
          "type": "uint256"
        },
        {
          "internalType": "address",
          "name": "owner",
          "type": "address"
        }
      ],
      "name": "ERC721IncorrectOwner",
      "type": "error"
    },
    {
      "inputs": [
        {
          "internalType": "address",
          "name": "operator",
          "type": "address"
        },
        {
          "internalType": "uint256",
          "name": "tokenId",
          "type": "uint256"
        }
      ],
      "name": "ERC721InsufficientApproval",
      "type": "error"
    },
    {
      "inputs": [
        {
          "internalType": "address",
          "name": "approver",
          "type": "address"
        }
      ],
      "name": "ERC721InvalidApprover",
      "type": "error"
    },
    {
      "inputs": [
        {
          "internalType": "address",
          "name": "operator",
          "type": "address"
        }
      ],
      "name": "ERC721InvalidOperator",
      "type": "error"
    },
    {
      "inputs": [
        {
          "internalType": "address",
          "name": "owner",
          "type": "address"
        }
      ],
      "name": "ERC721InvalidOwner",
      "type": "error"
    },
    {
      "inputs": [
        {
          "internalType": "address",
          "name": "receiver",
          "type": "address"
        }
      ],
      "name": "ERC721InvalidReceiver",
      "type": "error"
    },
    {
      "inputs": [
        {
          "internalType": "address",
          "name": "sender",
          "type": "address"
        }
      ],
      "name": "ERC721InvalidSender",
      "type": "error"
    },
    {
      "inputs": [
        {
          "internalType": "uint256",
          "name": "tokenId",
          "type": "uint256"
        }
      ],
      "name": "ERC721NonexistentToken",
      "type": "error"
    },
    {
      "inputs": [
        {
          "internalType": "address",
          "name": "owner",
          "type": "address"
        },
        {
          "internalType": "uint256",
          "name": "index",
          "type": "uint256"
        }
      ],
      "name": "ERC721OutOfBoundsIndex",
      "type": "error"
    },
    {
      "inputs": [],
      "name": "FailedInnerCall",
      "type": "error"
    },
    {
      "inputs": [],
      "name": "InvalidInitialization",
      "type": "error"
    },
    {
      "inputs": [],
      "name": "NotInitializing",
      "type": "error"
    },
    {
      "inputs": [
        {
          "internalType": "address",
          "name": "owner",
          "type": "address"
        }
      ],
      "name": "OwnableInvalidOwner",
      "type": "error"
    },
    {
      "inputs": [
        {
          "internalType": "address",
          "name": "account",
          "type": "address"
        }
      ],
      "name": "OwnableUnauthorizedAccount",
      "type": "error"
    },
    {
      "inputs": [],
      "name": "UUPSUnauthorizedCallContext",
      "type": "error"
    },
    {
      "inputs": [
        {
          "internalType": "bytes32",
          "name": "slot",
          "type": "bytes32"
        }
      ],
      "name": "UUPSUnsupportedProxiableUUID",
      "type": "error"
    },
    {
      "anonymous": false,
      "inputs": [
        {
          "indexed": true,
          "internalType": "address",
          "name": "owner",
          "type": "address"
        },
        {
          "indexed": true,
          "internalType": "address",
          "name": "approved",
          "type": "address"
        },
        {
          "indexed": true,
          "internalType": "uint256",
          "name": "tokenId",
          "type": "uint256"
        }
      ],
      "name": "Approval",
      "type": "event"
    },
    {
      "anonymous": false,
      "inputs": [
        {
          "indexed": true,
          "internalType": "address",
          "name": "owner",
          "type": "address"
        },
        {
          "indexed": true,
          "internalType": "address",
          "name": "operator",
          "type": "address"
        },
        {
          "indexed": false,
          "internalType": "bool",
          "name": "approved",
          "type": "bool"
        }
      ],
      "name": "ApprovalForAll",
      "type": "event"
    },
    {
      "anonymous": false,
      "inputs": [
        {
          "indexed": false,
          "internalType": "uint256",
          "name": "_fromTokenId",
          "type": "uint256"
        },
        {
          "indexed": false,
          "internalType": "uint256",
          "name": "_toTokenId",
          "type": "uint256"
        }
      ],
      "name": "BatchMetadataUpdate",
      "type": "event"
    },
    {
      "anonymous": false,
      "inputs": [
        {
          "indexed": false,
          "internalType": "uint64",
          "name": "version",
          "type": "uint64"
        }
      ],
      "name": "Initialized",
      "type": "event"
    },
    {
      "anonymous": false,
      "inputs": [
        {
          "indexed": false,
          "internalType": "uint256",
          "name": "_tokenId",
          "type": "uint256"
        }
      ],
      "name": "MetadataUpdate",
      "type": "event"
    },
    {
      "anonymous": false,
      "inputs": [
        {
          "indexed": true,
          "internalType": "address",
          "name": "previousOwner",
          "type": "address"
        },
        {
          "indexed": true,
          "internalType": "address",
          "name": "newOwner",
          "type": "address"
        }
      ],
      "name": "OwnershipTransferred",
      "type": "event"
    },
    {
      "anonymous": false,
      "inputs": [
        {
          "indexed": true,
          "internalType": "address",
          "name": "from",
          "type": "address"
        },
        {
          "indexed": true,
          "internalType": "address",
          "name": "to",
          "type": "address"
        },
        {
          "indexed": true,
          "internalType": "uint256",
          "name": "tokenId",
          "type": "uint256"
        }
      ],
      "name": "Transfer",
      "type": "event"
    },
    {
      "anonymous": false,
      "inputs": [
        {
          "indexed": true,
          "internalType": "address",
          "name": "implementation",
          "type": "address"
        }
      ],
      "name": "Upgraded",
      "type": "event"
    },
    {
      "inputs": [],
      "name": "UPGRADE_INTERFACE_VERSION",
      "outputs": [
        {
          "internalType": "string",
          "name": "",
          "type": "string"
        }
      ],
      "stateMutability": "view",
      "type": "function"
    },
    {
      "inputs": [
        {
          "internalType": "address",
          "name": "to",
          "type": "address"
        },
        {
          "internalType": "uint256",
          "name": "tokenId",
          "type": "uint256"
        }
      ],
      "name": "approve",
      "outputs": [],
      "stateMutability": "nonpayable",
      "type": "function"
    },
    {
      "inputs": [
        {
          "internalType": "address",
          "name": "owner",
          "type": "address"
        }
      ],
      "name": "balanceOf",
      "outputs": [
        {
          "internalType": "uint256",
          "name": "",
          "type": "uint256"
        }
      ],
      "stateMutability": "view",
      "type": "function"
    },
    {
      "inputs": [
        {
          "internalType": "uint256",
          "name": "tokenId",
          "type": "uint256"
        }
      ],
      "name": "getApproved",
      "outputs": [
        {
          "internalType": "address",
          "name": "",
          "type": "address"
        }
      ],
      "stateMutability": "view",
      "type": "function"
    },
    {
      "inputs": [
        {
          "internalType": "address",
          "name": "initialOwner",
          "type": "address"
        }
      ],
      "name": "initialize",
      "outputs": [],
      "stateMutability": "nonpayable",
      "type": "function"
    },
    {
      "inputs": [
        {
          "internalType": "address",
          "name": "owner",
          "type": "address"
        },
        {
          "internalType": "address",
          "name": "operator",
          "type": "address"
        }
      ],
      "name": "isApprovedForAll",
      "outputs": [
        {
          "internalType": "bool",
          "name": "",
          "type": "bool"
        }
      ],
      "stateMutability": "view",
      "type": "function"
    },
    {
      "inputs": [],
      "name": "name",
      "outputs": [
        {
          "internalType": "string",
          "name": "",
          "type": "string"
        }
      ],
      "stateMutability": "view",
      "type": "function"
    },
    {
      "inputs": [],
      "name": "owner",
      "outputs": [
        {
          "internalType": "address",
          "name": "",
          "type": "address"
        }
      ],
      "stateMutability": "view",
      "type": "function"
    },
    {
      "inputs": [
        {
          "internalType": "uint256",
          "name": "tokenId",
          "type": "uint256"
        }
      ],
      "name": "ownerOf",
      "outputs": [
        {
          "internalType": "address",
          "name": "",
          "type": "address"
        }
      ],
      "stateMutability": "view",
      "type": "function"
    },
    {
      "inputs": [],
      "name": "proxiableUUID",
      "outputs": [
        {
          "internalType": "bytes32",
          "name": "",
          "type": "bytes32"
        }
      ],
      "stateMutability": "view",
      "type": "function"
    },
    {
      "inputs": [],
      "name": "renounceOwnership",
      "outputs": [],
      "stateMutability": "nonpayable",
      "type": "function"
    },
    {
      "inputs": [
        {
          "internalType": "string",
          "name": "uri",
          "type": "string"
        }
      ],
      "name": "safeMint",
      "outputs": [],
      "stateMutability": "nonpayable",
      "type": "function"
    },
    {
      "inputs": [
        {
          "internalType": "address",
          "name": "from",
          "type": "address"
        },
        {
          "internalType": "address",
          "name": "to",
          "type": "address"
        },
        {
          "internalType": "uint256",
          "name": "tokenId",
          "type": "uint256"
        }
      ],
      "name": "safeTransferFrom",
      "outputs": [],
      "stateMutability": "nonpayable",
      "type": "function"
    },
    {
      "inputs": [
        {
          "internalType": "address",
          "name": "from",
          "type": "address"
        },
        {
          "internalType": "address",
          "name": "to",
          "type": "address"
        },
        {
          "internalType": "uint256",
          "name": "tokenId",
          "type": "uint256"
        },
        {
          "internalType": "bytes",
          "name": "data",
          "type": "bytes"
        }
      ],
      "name": "safeTransferFrom",
      "outputs": [],
      "stateMutability": "nonpayable",
      "type": "function"
    },
    {
      "inputs": [
        {
          "internalType": "address",
          "name": "operator",
          "type": "address"
        },
        {
          "internalType": "bool",
          "name": "approved",
          "type": "bool"
        }
      ],
      "name": "setApprovalForAll",
      "outputs": [],
      "stateMutability": "nonpayable",
      "type": "function"
    },
    {
      "inputs": [
        {
          "internalType": "bytes4",
          "name": "interfaceId",
          "type": "bytes4"
        }
      ],
      "name": "supportsInterface",
      "outputs": [
        {
          "internalType": "bool",
          "name": "",
          "type": "bool"
        }
      ],
      "stateMutability": "view",
      "type": "function"
    },
    {
      "inputs": [],
      "name": "symbol",
      "outputs": [
        {
          "internalType": "string",
          "name": "",
          "type": "string"
        }
      ],
      "stateMutability": "view",
      "type": "function"
    },
    {
      "inputs": [
        {
          "internalType": "uint256",
          "name": "index",
          "type": "uint256"
        }
      ],
      "name": "tokenByIndex",
      "outputs": [
        {
          "internalType": "uint256",
          "name": "",
          "type": "uint256"
        }
      ],
      "stateMutability": "view",
      "type": "function"
    },
    {
      "inputs": [
        {
          "internalType": "address",
          "name": "owner",
          "type": "address"
        },
        {
          "internalType": "uint256",
          "name": "index",
          "type": "uint256"
        }
      ],
      "name": "tokenOfOwnerByIndex",
      "outputs": [
        {
          "internalType": "uint256",
          "name": "",
          "type": "uint256"
        }
      ],
      "stateMutability": "view",
      "type": "function"
    },
    {
      "inputs": [
        {
          "internalType": "uint256",
          "name": "tokenId",
          "type": "uint256"
        }
      ],
      "name": "tokenURI",
      "outputs": [
        {
          "internalType": "string",
          "name": "",
          "type": "string"
        }
      ],
      "stateMutability": "view",
      "type": "function"
    },
    {
      "inputs": [],
      "name": "totalSupply",
      "outputs": [
        {
          "internalType": "uint256",
          "name": "",
          "type": "uint256"
        }
      ],
      "stateMutability": "view",
      "type": "function"
    },
    {
      "inputs": [
        {
          "internalType": "address",
          "name": "from",
          "type": "address"
        },
        {
          "internalType": "address",
          "name": "to",
          "type": "address"
        },
        {
          "internalType": "uint256",
          "name": "tokenId",
          "type": "uint256"
        }
      ],
      "name": "transferFrom",
      "outputs": [],
      "stateMutability": "nonpayable",
      "type": "function"
    },
    {
      "inputs": [
        {
          "internalType": "address",
          "name": "newOwner",
          "type": "address"
        }
      ],
      "name": "transferOwnership",
      "outputs": [],
      "stateMutability": "nonpayable",
      "type": "function"
    },
    {
      "inputs": [
        {
          "internalType": "address",
          "name": "newImplementation",
          "type": "address"
        },
        {
          "internalType": "bytes",
          "name": "data",
          "type": "bytes"
        }
      ],
      "name": "upgradeToAndCall",
      "outputs": [],
      "stateMutability": "payable",
      "type": "function"
    }
  ],
  "bytecode": "0x60a06040523060805234801561001457600080fd5b5061001d610022565b6100d4565b7ff0c57e16840df040f15088dc2f81fe391c3923bec73e23a9662efc9c229c6a00805468010000000000000000900460ff16156100725760405163f92ee8a960e01b815260040160405180910390fd5b80546001600160401b03908116146100d15780546001600160401b0319166001600160401b0390811782556040519081527fc7f505b2f371ae2175ee4913f4499e1f2633a7b5936321eed1cdaeb6115181d29060200160405180910390a15b50565b6080516122e9620000fe60003960008181610b0c01528181610b350152610c7601526122e96000f3fe60806040526004361061014b5760003560e01c8063695850fb116100b6578063ad3cb1cc1161006f578063ad3cb1cc146103bc578063b88d4fde146103ed578063c4d66de81461040d578063c87b56dd1461042d578063e985e9c51461044d578063f2fde38b1461046d57600080fd5b8063695850fb146102f557806370a0823114610315578063715018a6146103355780638da5cb5b1461034a57806395d89b4114610387578063a22cb4651461039c57600080fd5b80632f745c59116101085780632f745c591461024d57806342842e0e1461026d5780634f1ef2861461028d5780634f6ccce7146102a057806352d1902d146102c05780636352211e146102d557600080fd5b806301ffc9a71461015057806306fdde0314610185578063081812fc146101a7578063095ea7b3146101df57806318160ddd1461020157806323b872dd1461022d575b600080fd5b34801561015c57600080fd5b5061017061016b366004611c6d565b61048d565b60405190151581526020015b60405180910390f35b34801561019157600080fd5b5061019a61049e565b60405161017c9190611cda565b3480156101b357600080fd5b506101c76101c2366004611ced565b610542565b6040516001600160a01b03909116815260200161017c565b3480156101eb57600080fd5b506101ff6101fa366004611d22565b610557565b005b34801561020d57600080fd5b50600080516020612294833981519152545b60405190815260200161017c565b34801561023957600080fd5b506101ff610248366004611d4c565b610566565b34801561025957600080fd5b5061021f610268366004611d22565b6105f6565b34801561027957600080fd5b506101ff610288366004611d4c565b61066a565b6101ff61029b366004611e34565b61068a565b3480156102ac57600080fd5b5061021f6102bb366004611ced565b6106a5565b3480156102cc57600080fd5b5061021f61071d565b3480156102e157600080fd5b506101c76102f0366004611ced565b61073a565b34801561030157600080fd5b506101ff610310366004611e82565b610745565b34801561032157600080fd5b5061021f610330366004611ed3565b61076e565b34801561034157600080fd5b506101ff6107ca565b34801561035657600080fd5b507f9016d09d72d40fdae2fd8ceac6b6234c7706214fd39c1cd1e609a0528c199300546001600160a01b03166101c7565b34801561039357600080fd5b5061019a6107de565b3480156103a857600080fd5b506101ff6103b7366004611eee565b61081d565b3480156103c857600080fd5b5061019a604051806040016040528060058152602001640352e302e360dc1b81525081565b3480156103f957600080fd5b506101ff610408366004611f2a565b610828565b34801561041957600080fd5b506101ff610428366004611ed3565b61083f565b34801561043957600080fd5b5061019a610448366004611ced565b6109b0565b34801561045957600080fd5b50610170610468366004611f92565b6109bb565b34801561047957600080fd5b506101ff610488366004611ed3565b610a08565b600061049882610a46565b92915050565b60008051602061225483398151915280546060919081906104be90611fc5565b80601f01602080910402602001604051908101604052809291908181526020018280546104ea90611fc5565b80156105375780601f1061050c57610100808354040283529160200191610537565b820191906000526020600020905b81548152906001019060200180831161051a57829003601f168201915b505050505091505090565b600061054d82610a6b565b5061049882610aa3565b610562828233610add565b5050565b6001600160a01b03821661059557604051633250574960e11b8152600060048201526024015b60405180910390fd5b60006105a2838333610aea565b9050836001600160a01b0316816001600160a01b0316146105f0576040516364283d7b60e01b81526001600160a01b038086166004830152602482018490528216604482015260640161058c565b50505050565b60006000805160206122348339815191526106108461076e565b83106106415760405163295f44f760e21b81526001600160a01b03851660048201526024810184905260440161058c565b6001600160a01b0384166000908152602091825260408082208583529092522054905092915050565b61068583838360405180602001604052806000815250610828565b505050565b610692610b01565b61069b82610ba6565b6105628282610bae565b60006000805160206122348339815191526106cc6000805160206122948339815191525490565b83106106f55760405163295f44f760e21b8152600060048201526024810184905260440161058c565b80600201838154811061070a5761070a611fff565b9060005260206000200154915050919050565b6000610727610c6b565b5060008051602061227483398151915290565b600061049882610a6b565b6000805481806107548361202b565b9190505590506107643382610cb4565b6105628183610cce565b60006000805160206122548339815191526001600160a01b0383166107a9576040516322718ad960e21b81526000600482015260240161058c565b6001600160a01b039092166000908152600390920160205250604090205490565b6107d2610d41565b6107dc6000610d9c565b565b7f80bb2b638cc20bc4d0a60d66940f3ab4a00c1d7b313497ca82fb0b4ab00793018054606091600080516020612254833981519152916104be90611fc5565b610562338383610e0d565b610833848484610566565b6105f084848484610ebe565b7ff0c57e16840df040f15088dc2f81fe391c3923bec73e23a9662efc9c229c6a008054600160401b810460ff16159067ffffffffffffffff166000811580156108855750825b905060008267ffffffffffffffff1660011480156108a25750303b155b9050811580156108b0575080155b156108ce5760405163f92ee8a960e01b815260040160405180910390fd5b845467ffffffffffffffff1916600117855583156108f857845460ff60401b1916600160401b1785555b6109416040518060400160405280600b81526020016a119c9959535a5b9d13919560aa1b815250604051806040016040528060048152602001631193919560e21b815250610fe7565b610949610ff9565b610951610ff9565b61095a86611001565b610962610ff9565b83156109a857845460ff60401b19168555604051600181527fc7f505b2f371ae2175ee4913f4499e1f2633a7b5936321eed1cdaeb6115181d29060200160405180910390a15b505050505050565b606061049882611012565b6001600160a01b0391821660009081527f80bb2b638cc20bc4d0a60d66940f3ab4a00c1d7b313497ca82fb0b4ab00793056020908152604080832093909416825291909152205460ff1690565b610a10610d41565b6001600160a01b038116610a3a57604051631e4fbdf760e01b81526000600482015260240161058c565b610a4381610d9c565b50565b60006001600160e01b03198216632483248360e11b1480610498575061049882611147565b600080610a778361116c565b90506001600160a01b03811661049857604051637e27328960e01b81526004810184905260240161058c565b60009081527f80bb2b638cc20bc4d0a60d66940f3ab4a00c1d7b313497ca82fb0b4ab007930460205260409020546001600160a01b031690565b61068583838360016111a6565b6000610af78484846112bc565b90505b9392505050565b306001600160a01b037f0000000000000000000000000000000000000000000000000000000000000000161480610b8857507f00000000000000000000000000000000000000000000000000000000000000006001600160a01b0316610b7c600080516020612274833981519152546001600160a01b031690565b6001600160a01b031614155b156107dc5760405163703e46dd60e11b815260040160405180910390fd5b610a43610d41565b816001600160a01b03166352d1902d6040518163ffffffff1660e01b8152600401602060405180830381865afa925050508015610c08575060408051601f3d908101601f19168201909252610c0591810190612044565b60015b610c3057604051634c9c8ce360e01b81526001600160a01b038316600482015260240161058c565b6000805160206122748339815191528114610c6157604051632a87526960e21b81526004810182905260240161058c565b61068583836113b5565b306001600160a01b037f000000000000000000000000000000000000000000000000000000000000000016146107dc5760405163703e46dd60e11b815260040160405180910390fd5b61056282826040518060200160405280600081525061140b565b60008281527f0542a41881ee128a365a727b282c86fa859579490b9bb45aab8503648c8e790060208190526040909120610d0883826120a5565b506040518381527ff8e1a15aba9398e019f0b49df1a4fde98ee17ae345cb5f6b5e2c27f5033e8ce79060200160405180910390a1505050565b33610d737f9016d09d72d40fdae2fd8ceac6b6234c7706214fd39c1cd1e609a0528c199300546001600160a01b031690565b6001600160a01b0316146107dc5760405163118cdaa760e01b815233600482015260240161058c565b7f9016d09d72d40fdae2fd8ceac6b6234c7706214fd39c1cd1e609a0528c19930080546001600160a01b031981166001600160a01b03848116918217845560405192169182907f8be0079c531659141344cd1fd0a4f28419497f9722a3daafe3b4186f6b6457e090600090a3505050565b6000805160206122548339815191526001600160a01b038316610e4e57604051630b61174360e31b81526001600160a01b038416600482015260240161058c565b6001600160a01b038481166000818152600584016020908152604080832094881680845294825291829020805460ff191687151590811790915591519182527f17307eab39ab6107e8899845ad3d59bd9653f200f220920489ca2b5937696c31910160405180910390a350505050565b6001600160a01b0383163b156105f057604051630a85bd0160e11b81526001600160a01b0384169063150b7a0290610f00903390889087908790600401612165565b6020604051808303816000875af1925050508015610f3b575060408051601f3d908101601f19168201909252610f38918101906121a2565b60015b610fa4573d808015610f69576040519150601f19603f3d011682016040523d82523d6000602084013e610f6e565b606091505b508051600003610f9c57604051633250574960e11b81526001600160a01b038516600482015260240161058c565b805181602001fd5b6001600160e01b03198116630a85bd0160e11b14610fe057604051633250574960e11b81526001600160a01b038516600482015260240161058c565b5050505050565b610fef611422565b610562828261146b565b6107dc611422565b611009611422565b610a438161149c565b60607f0542a41881ee128a365a727b282c86fa859579490b9bb45aab8503648c8e790061103e83610a6b565b506000838152602082905260408120805461105890611fc5565b80601f016020809104026020016040519081016040528092919081815260200182805461108490611fc5565b80156110d15780601f106110a6576101008083540402835291602001916110d1565b820191906000526020600020905b8154815290600101906020018083116110b457829003601f168201915b5050505050905060006110ef60408051602081019091526000815290565b9050805160000361110257509392505050565b81511561113557808260405160200161111c9291906121bf565b6040516020818303038152906040529350505050919050565b61113e856114a4565b95945050505050565b60006001600160e01b0319821663780e9d6360e01b1480610498575061049882611518565b60009081527f80bb2b638cc20bc4d0a60d66940f3ab4a00c1d7b313497ca82fb0b4ab007930260205260409020546001600160a01b031690565b60008051602061225483398151915281806111c957506001600160a01b03831615155b1561128b5760006111d985610a6b565b90506001600160a01b038416158015906112055750836001600160a01b0316816001600160a01b031614155b8015611218575061121681856109bb565b155b156112415760405163a9fbf51f60e01b81526001600160a01b038516600482015260240161058c565b82156112895784866001600160a01b0316826001600160a01b03167f8c5be1e5ebec7d5bd14f71427d1e84f3dd0314c0f7b2291e5b200ac8c7c3b92560405160405180910390a45b505b600093845260040160205250506040902080546001600160a01b0319166001600160a01b0392909216919091179055565b6000806112ca858585611568565b90506001600160a01b0381166113535761134e84600080516020612294833981519152805460008381527f645e039705490088daad89bae25049a34f4a9072d398537b1ab2425f24cbed0360205260408120829055600182018355919091527fa42f15e5d656f8155fd7419d740a6073999f19cd6e061449ce4a257150545bf20155565b611376565b846001600160a01b0316816001600160a01b031614611376576113768185611672565b6001600160a01b0385166113925761138d84611716565b610af7565b846001600160a01b0316816001600160a01b031614610af757610af785856117ed565b6113be82611848565b6040516001600160a01b038316907fbc7cd75a20ee27fd9adebab32041f755214dbc6bffa90cc0225b39da2e5c2d3b90600090a28051156114035761068582826118ad565b61056261191a565b6114158383611939565b6106856000848484610ebe565b7ff0c57e16840df040f15088dc2f81fe391c3923bec73e23a9662efc9c229c6a0054600160401b900460ff166107dc57604051631afcd79f60e31b815260040160405180910390fd5b611473611422565b6000805160206122548339815191528061148d84826120a5565b50600181016105f083826120a5565b610a10611422565b60606114af82610a6b565b5060006114c760408051602081019091526000815290565b905060008151116114e75760405180602001604052806000815250610afa565b806114f18461199e565b6040516020016115029291906121bf565b6040516020818303038152906040529392505050565b60006001600160e01b031982166380ac58cd60e01b148061154957506001600160e01b03198216635b5e139f60e01b145b8061049857506301ffc9a760e01b6001600160e01b0319831614610498565b6000600080516020612254833981519152816115838561116c565b90506001600160a01b0384161561159f5761159f818587611a31565b6001600160a01b038116156115df576115bc6000866000806111a6565b6001600160a01b0381166000908152600383016020526040902080546000190190555b6001600160a01b03861615611610576001600160a01b03861660009081526003830160205260409020805460010190555b600085815260028301602052604080822080546001600160a01b0319166001600160a01b038a811691821790925591518893918516917fddf252ad1be2c89b69c2b068fc378daa952ba7f163c4a11628f55a4df523b3ef91a495945050505050565b600080516020612234833981519152600061168c8461076e565b60008481526001840160205260409020549091508082146116e1576001600160a01b03851660009081526020848152604080832085845282528083205484845281842081905583526001860190915290208190555b50600092835260018201602090815260408085208590556001600160a01b039095168452918252838320908352905290812055565b6000805160206122948339815191525460008051602061223483398151915290600090611745906001906121ee565b600084815260038401602052604081205460028501805493945090928490811061177157611771611fff565b906000526020600020015490508084600201838154811061179457611794611fff565b6000918252602080832090910192909255828152600386019091526040808220849055868252812055600284018054806117d0576117d0612201565b600190038181906000526020600020016000905590555050505050565b600080516020612234833981519152600060016118098561076e565b61181391906121ee565b6001600160a01b0390941660009081526020838152604080832087845282528083208690559482526001909301909252502055565b806001600160a01b03163b60000361187e57604051634c9c8ce360e01b81526001600160a01b038216600482015260240161058c565b60008051602061227483398151915280546001600160a01b0319166001600160a01b0392909216919091179055565b6060600080846001600160a01b0316846040516118ca9190612217565b600060405180830381855af49150503d8060008114611905576040519150601f19603f3d011682016040523d82523d6000602084013e61190a565b606091505b509150915061113e858383611a95565b34156107dc5760405163b398979f60e01b815260040160405180910390fd5b6001600160a01b03821661196357604051633250574960e11b81526000600482015260240161058c565b600061197183836000610aea565b90506001600160a01b03811615610685576040516339e3563760e11b81526000600482015260240161058c565b606060006119ab83611af1565b600101905060008167ffffffffffffffff8111156119cb576119cb611d88565b6040519080825280601f01601f1916602001820160405280156119f5576020820181803683370190505b5090508181016020015b600019016f181899199a1a9b1b9c1cb0b131b232b360811b600a86061a8153600a85049450846119ff57509392505050565b611a3c838383611bc9565b610685576001600160a01b038316611a6a57604051637e27328960e01b81526004810182905260240161058c565b60405163177e802f60e01b81526001600160a01b03831660048201526024810182905260440161058c565b606082611aaa57611aa582611c2e565b610afa565b8151158015611ac157506001600160a01b0384163b155b15611aea57604051639996b31560e01b81526001600160a01b038516600482015260240161058c565b5080610afa565b60008072184f03e93ff9f4daa797ed6e38ed64bf6a1f0160401b8310611b305772184f03e93ff9f4daa797ed6e38ed64bf6a1f0160401b830492506040015b6d04ee2d6d415b85acef81000000008310611b5c576d04ee2d6d415b85acef8100000000830492506020015b662386f26fc100008310611b7a57662386f26fc10000830492506010015b6305f5e1008310611b92576305f5e100830492506008015b6127108310611ba657612710830492506004015b60648310611bb8576064830492506002015b600a83106104985760010192915050565b60006001600160a01b03831615801590610af75750826001600160a01b0316846001600160a01b03161480611c035750611c0384846109bb565b80610af75750826001600160a01b0316611c1c83610aa3565b6001600160a01b031614949350505050565b805115611c3e5780518082602001fd5b604051630a12f52160e11b815260040160405180910390fd5b6001600160e01b031981168114610a4357600080fd5b600060208284031215611c7f57600080fd5b8135610afa81611c57565b60005b83811015611ca5578181015183820152602001611c8d565b50506000910152565b60008151808452611cc6816020860160208601611c8a565b601f01601f19169290920160200192915050565b602081526000610afa6020830184611cae565b600060208284031215611cff57600080fd5b5035919050565b80356001600160a01b0381168114611d1d57600080fd5b919050565b60008060408385031215611d3557600080fd5b611d3e83611d06565b946020939093013593505050565b600080600060608486031215611d6157600080fd5b611d6a84611d06565b9250611d7860208501611d06565b9150604084013590509250925092565b634e487b7160e01b600052604160045260246000fd5b600067ffffffffffffffff80841115611db957611db9611d88565b604051601f8501601f19908116603f01168101908282118183101715611de157611de1611d88565b81604052809350858152868686011115611dfa57600080fd5b858560208301376000602087830101525050509392505050565b600082601f830112611e2557600080fd5b610afa83833560208501611d9e565b60008060408385031215611e4757600080fd5b611e5083611d06565b9150602083013567ffffffffffffffff811115611e6c57600080fd5b611e7885828601611e14565b9150509250929050565b600060208284031215611e9457600080fd5b813567ffffffffffffffff811115611eab57600080fd5b8201601f81018413611ebc57600080fd5b611ecb84823560208401611d9e565b949350505050565b600060208284031215611ee557600080fd5b610afa82611d06565b60008060408385031215611f0157600080fd5b611f0a83611d06565b915060208301358015158114611f1f57600080fd5b809150509250929050565b60008060008060808587031215611f4057600080fd5b611f4985611d06565b9350611f5760208601611d06565b925060408501359150606085013567ffffffffffffffff811115611f7a57600080fd5b611f8687828801611e14565b91505092959194509250565b60008060408385031215611fa557600080fd5b611fae83611d06565b9150611fbc60208401611d06565b90509250929050565b600181811c90821680611fd957607f821691505b602082108103611ff957634e487b7160e01b600052602260045260246000fd5b50919050565b634e487b7160e01b600052603260045260246000fd5b634e487b7160e01b600052601160045260246000fd5b60006001820161203d5761203d612015565b5060010190565b60006020828403121561205657600080fd5b5051919050565b601f821115610685576000816000526020600020601f850160051c810160208610156120865750805b601f850160051c820191505b818110156109a857828155600101612092565b815167ffffffffffffffff8111156120bf576120bf611d88565b6120d3816120cd8454611fc5565b8461205d565b602080601f83116001811461210857600084156120f05750858301515b600019600386901b1c1916600185901b1785556109a8565b600085815260208120601f198616915b8281101561213757888601518255948401946001909101908401612118565b50858210156121555787850151600019600388901b60f8161c191681555b5050505050600190811b01905550565b6001600160a01b038581168252841660208201526040810183905260806060820181905260009061219890830184611cae565b9695505050505050565b6000602082840312156121b457600080fd5b8151610afa81611c57565b600083516121d1818460208801611c8a565b8351908301906121e5818360208801611c8a565b01949350505050565b8181038181111561049857610498612015565b634e487b7160e01b600052603160045260246000fd5b60008251612229818460208701611c8a565b919091019291505056fe645e039705490088daad89bae25049a34f4a9072d398537b1ab2425f24cbed0080bb2b638cc20bc4d0a60d66940f3ab4a00c1d7b313497ca82fb0b4ab0079300360894a13ba1a3210667c828492db98dca3e2076cc3735a920a3ca505d382bbc645e039705490088daad89bae25049a34f4a9072d398537b1ab2425f24cbed02a2646970667358221220856a873adb53b7b507ee06924cfc479198b0d23c3fea26033b2b168acfb8113364736f6c63430008180033",
  "linkReferences": {},
  "deployedLinkReferences": {}
}